:100000000C945D000C94BA020C9493020C9485003D
:100010000C9485000C9485000C9485000C9485004C
:100020000C9485000C9485000C9485000C9485003C
:100030000C9485000C9485000C9485000C9485002C
:100040000C9449020C9485000C9407030C94E10273
:100050000C9485000C9485000C9485000C9485000C
:100060000C9485000C9485000000000024002700FB
:100070002A0000000000250028002B0004040404CE
:100080000404040402020202020203030303030342
:10009000010204081020408001020408102001021F
:1000A00004081020000000080002010000030407FB
:1000B00000000000000000009B0411241FBECFEFD1
:1000C000D8E0DEBFCDBF11E0A0E0B1E0EEE5FAE0A0
:1000D00002C005900D92A632B107D9F721E0A6E241
:1000E000B1E001C01D92AE3CB207E1F710E0CDE5F2
:1000F000D0E004C02197FE010E942705CC35D1072E
:10010000C9F70E9439030C942D050C940000EDEA08
:10011000F0E02491E9E9F0E09491E5E8F0E0E49181
:10012000EE23C9F0222339F0233001F1A8F4213065
:1001300019F1223029F1F0E0EE0FFF1FEE58FF4FCA
:10014000A591B4912FB7F894EC91811126C09095A8
:100150009E239C932FBF08952730A9F02830C9F023
:10016000243049F7209180002F7D03C0209180002A
:100170002F7720938000DFCF24B52F7724BDDBCFEE
:1001800024B52F7DFBCF2091B0002F772093B000B6
:10019000D2CF2091B0002F7DF9CF9E2BDACF3FB781
:1001A000F89480912D0190912E01A0912F01B09192
:1001B000300126B5A89B05C02F3F19F00196A11D5F
:1001C000B11D3FBFBA2FA92F982F8827BC01CD01A1
:1001D000620F711D811D911D42E0660F771F881F00
:1001E000991F4A95D1F708958F929F92AF92BF922F
:1001F000CF92DF92EF92FF926B017C010E94CF00C1
:100200004B015C01C114D104E104F104B9F00E9476
:10021000CF00681979098A099B09683E73408105F6
:10022000910580F321E0C21AD108E108F10888EEB7
:10023000880E83E0981EA11CB11CE4CFFF90EF90C4
:10024000DF90CF90BF90AF909F908F90089581E006
:1002500090E0909327018093260108950895AF922E
:10026000BF92CF92DF92EF92FF920F931F93CF93A3
:10027000DF936C017B018B01040F151FEB015E0105
:10028000AE18BF08C017D10759F06991D601ED919A
:10029000FC910190F081E02DC6010995892B79F739
:1002A000C501DF91CF911F910F91FF90EF90DF90EB
:1002B000CF90BF90AF900895FC01538D448D252FB2
:1002C00030E0842F90E0821B930B541710F0CF96F0
:1002D000089501970895FC01918D828D981761F022
:1002E000A28DAE0FBF2FB11D5D968C91928D9F5F39
:1002F0009F73928F90E008958FEF9FEF0895FC0118
:10030000918D828D981731F0828DE80FF11D858DCA
:1003100090E008958FEF9FEF0895FC01918D228D5D
:10032000892F90E0805C9F4F821B91098F739927E2
:10033000089581E391E00E948D0121E0892B09F469
:1003400020E0822F089580E090E0892B29F00E9420
:10035000990181110C9400000895FC01A48DA80F4F
:10036000B92FB11DA35ABF4F2C91848D90E00196F7
:100370008F739927848FA689B7892C93A089B18917
:100380008C91837080648C93938D848D981306C0B8
:100390000288F389E02D80818F7D80830895EF921C
:1003A000FF920F931F93CF93DF93EC0181E0888F2F
:1003B0009B8D8C8D98131AC0E889F989808185FFFF
:1003C00015C09FB7F894EE89FF896083E889F989A1
:1003D00080818370806480839FBF81E090E0DF91A3
:1003E000CF911F910F91FF90EF900895F62E0B8DF6
:1003F00010E00F5F1F4F0F731127E02E8C8D8E11B1
:100400000CC00FB607FCFACFE889F989808185FF17
:10041000F5CFCE010E94AD01F1CFEB8DEC0FFD2F9A
:10042000F11DE35AFF4FF0829FB7F8940B8FEA89D2
:10043000FB8980818062CFCFCF93DF93EC01888DE1
:100440008823B9F0AA89BB89E889F9898C9185FD4F
:1004500003C0808186FD0DC00FB607FCF7CF8C91DD
:1004600085FFF2CF808185FFEDCFCE010E94AD01E7
:10047000E9CFDF91CF910895FC0101900020E9F7C9
:100480003197AF01481B590BBC0181E391E00C94FB
:100490002F011F920F920FB60F9211242F933F93AB
:1004A0008F939F93AF93BF938091290190912A01DD
:1004B000A0912B01B0912C013091280123E0230F52
:1004C0002D3758F50196A11DB11D20932801809369
:1004D000290190932A01A0932B01B0932C018091C4
:1004E0002D0190912E01A0912F01B0913001019624
:1004F000A11DB11D80932D0190932E01A0932F017A
:10050000B0933001BF91AF919F918F913F912F9107
:100510000F900FBE0F901F90189526E8230F02969C
:10052000A11DB11DD2CF1F920F920FB60F921124B1
:100530002F933F934F935F936F937F938F939F93EB
:10054000AF93BF93EF93FF93E0910201F09103010A
:100550000995FF91EF91BF91AF919F918F917F91FD
:100560006F915F914F913F912F910F900FBE0F9020
:100570001F9018951F920F920FB60F9211242F9370
:100580003F934F935F936F937F938F939F93AF931B
:10059000BF93EF93FF93E0910001F0910101099562
:1005A000FF91EF91BF91AF919F918F917F916F914B
:1005B0005F914F913F912F910F900FBE0F901F9021
:1005C00018951F920F920FB60F9211242F933F93FD
:1005D0004F935F936F937F938F939F93AF93BF934B
:1005E000EF93FF9381E391E00E94AD01FF91EF91C2
:1005F000BF91AF919F918F917F916F915F914F913B
:100600003F912F910F900FBE0F901F9018951F9242
:100610000F920FB60F9211242F938F939F93EF9306
:10062000FF93E0914101F09142018081E091470107
:10063000F091480182FD1BC0908180914A018F5F3B
:100640008F7320914B01821741F0E0914A01F0E055
:10065000EF5CFE4F958F80934A01FF91EF919F9140
:100660008F912F910F900FBE0F901F901895808142
:10067000F4CFCF93DF93CDB7DEB7A1970FB6F89441
:10068000DEBF0FBECDBF789484B5826084BD84B5D3
:10069000816084BD85B5826085BD85B5816085BD7D
:1006A00080916E00816080936E0010928100809135
:1006B00081008260809381008091810081608093BD
:1006C0008100809180008160809380008091B100E2
:1006D00084608093B1008091B00081608093B0000D
:1006E00080917A00846080937A0080917A008260A1
:1006F00080937A0080917A00816080937A00809163
:100700007A00806880937A001092C100EEE9F0E0F0
:100710002491EAE8F0E084918823C9F090E0880F02
:10072000991FFC01E859FF4F45915491FC01EE5887
:10073000FF4FA591B4919FB7F894FA01808120955D
:10074000822380838C91E22FE823EC939FBFE9E919
:10075000F0E02491E5E8F0E08491882399F090E0BE
:10076000880F991FFC01E859FF4FA591B491FC0136
:10077000EE58FF4F859194918FB7F894EC91E22B4E
:10078000EC938FBFE0914101F091420182E08083C0
:10079000E0913D01F0913E011082E0913F01F09126
:1007A00040018FEC808310924901E0914501F09166
:1007B000460186E08083E0914301F091440180810D
:1007C00080618083E0914301F091440180818860E1
:1007D0008083E0914301F0914401808180688083AF
:1007E000E0914301F091440180818F7D808387E215
:1007F00091E09093010180930001809169008360F2
:1008000080936900E89A8AE0882E912CA12CB12C63
:1008100090E0292E90E0392EF0E4F0937C00809156
:100820007A00806480937A0080917A0086FDFCCF04
:100830002091780030917900A1EFBFEF0E94180558
:100840002FEF33E040E050E00E94C80429013A0154
:100850007A01690180E1C80ED11CE11CF11C86E11E
:1008600091E00E943C02F7FE50C06DE281E391E00E
:100870000E94CF0120EF3FEF4FEF5FEF24193509C2
:100880004609570919A28E010F5D1F4FCA01B90110
:10089000A50194010E94E704605DF80162938F0155
:1008A000211531054105510589F70115110519F08B
:1008B000C8010E943C0283E291E00E943C028091C8
:1008C000260190912701892BA1F0C701B6010E9452
:1008D000F40081E00E94870061E070E080E090E039
:1008E0000E94F40080E00E9487001092270110927D
:1008F00026012114310409F48FCF0E949901882325
:1009000009F48ACF0E94000087CFA701960119A29F
:100910008E010F5D1F4FCA01B901A50194010E940C
:10092000E704605DF80162938F01211531054105EF
:10093000510589F7BACFE1E3F1E01382128288EE24
:1009400093E0A0E0B0E084839583A683B78388E03A
:1009500091E09183808385EC90E09587848784EC97
:1009600090E09787868780EC90E0918B808B81EC7C
:1009700090E0938B828B82EC90E0958B848B86EC5D
:1009800090E0978B868B118E128E138E148E0895A5
:10099000052E97FB1EF400940E94DF0457FD07D03C
:1009A0000E94E70407FC03D04EF40C94DF0450953A
:1009B0004095309521953F4F4F4F5F4F089590954B
:1009C0008095709561957F4F8F4F9F4F0895A1E25D
:1009D0001A2EAA1BBB1BFD010DC0AA1FBB1FEE1FB9
:1009E000FF1FA217B307E407F50720F0A21BB30B04
:1009F000E40BF50B661F771F881F991F1A9469F780
:100A000060957095809590959B01AC01BD01CF01DB
:100A10000895A29FB001B39FC001A39F700D811DD7
:100A20001124911DB29F700D811D1124911D0895F7
:100A30000E940905332312F48A1B9B0B0C94220598
:100A40000E940905B7FF0895821B930B0895EE0FCE
:0E0A5000FF1F0590F491E02D0994F894FFCF5C
:100A5E002E012E0100000000CF012F015C011C02AF
:100A6E008D016B017F01706861736544656C6179FE
:060A7E003A20000D0A0001
:00000001FF
