:100000000C945D000C94B9020C9492020C9485003F
:100010000C9485000C9485000C9485000C9485004C
:100020000C9485000C9485000C9485000C945F035F
:100030000C9438030C9485000C9485000C94850076
:100040000C9448020C9485000C9406030C94E00276
:100050000C9485000C9485000C9485000C9485000C
:100060000C9485000C9485000000000024002700FB
:100070002A0000000000250028002B0004040404CE
:100080000404040402020202020203030303030342
:10009000010204081020408001020408102001021F
:1000A00004081020000000080002010000030407FB
:1000B0000000000000000000920411241FBECFEFDA
:1000C000D8E0DEBFCDBF11E0A0E0B1E0ECE3FAE0A4
:1000D00002C005900D92A633B107D9F721E0A6E33F
:1000E000B1E001C01D92AC3DB207E1F710E0CDE5F3
:1000F000D0E004C02197FE010E941605CC35D1073F
:10010000C9F70E948D030C941C050C940000EDEAC5
:10011000F0E02491E9E9F0E09491E5E8F0E0E49181
:10012000EE23C9F0222339F0233001F1A8F4213065
:1001300019F1223029F1F0E0EE0FFF1FEE58FF4FCA
:10014000A591B4912FB7F894EC91811126C09095A8
:100150009E239C932FBF08952730A9F02830C9F023
:10016000243049F7209180002F7D03C0209180002A
:100170002F7720938000DFCF24B52F7724BDDBCFEE
:1001800024B52F7DFBCF2091B0002F772093B000B6
:10019000D2CF2091B0002F7DF9CF9E2BDACFCF9315
:1001A000DF9390E0FC01E057FF4F249184589F4F6C
:1001B000FC0184918823C9F090E0880F991FFC010D
:1001C000E859FF4FA591B491FC01EE58FF4FC5913E
:1001D000D49161110DC09FB7F8948C912095822322
:1001E0008C938881282328839FBFDF91CF91089526
:1001F000623051F49FB7F8943C91822F809583230D
:100200008C93E8812E2BEFCF8FB7F894EC912E2BA7
:100210002C938FBFEACF3FB7F8948091D80190918B
:10022000D901A091DA01B091DB0126B5A89B05C0E8
:100230002F3F19F00196A11DB11D3FBFBA2FA92F65
:10024000982F8827BC01CD01620F711D811D911D62
:1002500042E0660F771F881F991F4A95D1F70895CE
:10026000109285001092840084E08093810080E0E9
:100270000C9487000895AF92BF92CF92DF92EF92D5
:10028000FF920F931F93CF93DF936C017B018B0140
:10029000040F151FEB015E01AE18BF08C017D10790
:1002A00059F06991D601ED91FC910190F081E02D1A
:1002B000C6010995892B79F7C501DF91CF911F916F
:1002C0000F91FF90EF90DF90CF90BF90AF90089587
:1002D000FC01538D448D252F30E0842F90E0821B4C
:1002E000930B541710F0CF96089501970895FC01D1
:1002F000918D828D981761F0A28DAE0FBF2FB11D29
:100300005D968C91928D9F5F9F73928F90E0089580
:100310008FEF9FEF0895FC01918D828D981731F03A
:10032000828DE80FF11D858D90E008958FEF9FEF8E
:100330000895FC01918D228D892F90E0805C9F4F64
:10034000821B91098F739927089586E391E00E949B
:10035000990121E0892B09F420E0822F089580E0A3
:1003600090E0892B29F00E94A50181110C940000D6
:100370000895FC01A48DA80FB92FB11DA35ABF4F3A
:100380002C91848D90E001968F739927848FA68994
:10039000B7892C93A089B1898C91837080648C93E8
:1003A000938D848D981306C00288F389E02D808197
:1003B0008F7D80830895EF92FF920F931F93CF93C9
:1003C000DF93EC0181E0888F9B8D8C8D98131AC090
:1003D000E889F989808185FF15C09FB7F894EE8977
:1003E000FF896083E889F9898081837080648083D4
:1003F0009FBF81E090E0DF91CF911F910F91FF901F
:10040000EF900895F62E0B8D10E00F5F1F4F0F73C6
:100410001127E02E8C8D8E110CC00FB607FCFACF81
:10042000E889F989808185FFF5CFCE010E94B90165
:10043000F1CFEB8DEC0FFD2FF11DE35AFF4FF08252
:100440009FB7F8940B8FEA89FB8980818062CFCFB8
:10045000CF93DF93EC01888D8823B9F0AA89BB89FB
:10046000E889F9898C9185FD03C0808186FD0DC0E6
:100470000FB607FCF7CF8C9185FFF2CF808185FF07
:10048000EDCFCE010E94B901E9CFDF91CF91089560
:100490001F920F920FB60F9211242F933F938F93B9
:1004A0009F93AF93BF938091D4019091D501A09178
:1004B000D601B091D7013091D30123E0230F2D371E
:1004C00058F50196A11DB11D2093D3018093D4014D
:1004D0009093D501A093D601B093D7018091D80114
:1004E0009091D901A091DA01B091DB010196A11D93
:1004F000B11D8093D8019093D901A093DA01B093F4
:10050000DB01BF91AF919F918F913F912F910F9000
:100510000FBE0F901F90189526E8230F0296A11D7D
:10052000B11DD2CF1F920F920FB60F9211242F93AD
:100530003F934F935F936F937F938F939F93AF936B
:10054000BF93EF93FF93E0910201F09103010995AE
:10055000FF91EF91BF91AF919F918F917F916F919B
:100560005F914F913F912F910F900FBE0F901F9071
:1005700018951F920F920FB60F9211242F933F934D
:100580004F935F936F937F938F939F93AF93BF939B
:10059000EF93FF93E0910001F09101010995FF9124
:1005A000EF91BF91AF919F918F917F916F915F91EB
:1005B0004F913F912F910F900FBE0F901F90189564
:1005C0001F920F920FB60F9211242F933F934F93C8
:1005D0005F936F937F938F939F93AF93BF93EF93AB
:1005E000FF9386E391E00E94B901FF91EF91BF91E3
:1005F000AF919F918F917F916F915F914F913F91BB
:100600002F910F900FBE0F901F9018951F920F9271
:100610000FB60F9211242F938F939F93EF93FF9315
:10062000E0914601F09147018081E0914C01F09109
:100630004D0182FD1BC0908180914F018F5F8F73B0
:1006400020915001821741F0E0914F01F0E0EA5C07
:10065000FE4F958F80934F01FF91EF919F918F9166
:100660002F910F900FBE0F901F9018958081F4CF9F
:100670001F920F920FB60F9211242F933F934F9317
:100680005F936F937F938F939F93AF93BF93EF93FA
:10069000FF9380E00E94870010928100FF91EF910C
:1006A000BF91AF919F918F917F916F915F914F918A
:1006B0003F912F910F900FBE0F901F9018951F9292
:1006C0000F920FB60F9211242F933F934F935F9386
:1006D0006F937F938F939F93AF93BF93EF93FF930A
:1006E00081E00E9487008091840090918500CF96E0
:1006F00090938B0080938A00FF91EF91BF91AF910F
:100700009F918F917F916F915F914F913F912F9129
:100710000F900FBE0F901F901895789484B582604B
:1007200084BD84B5816084BD85B5826085BD85B595
:10073000816085BD80916E00816080936E00109213
:10074000810080918100826080938100809181008E
:10075000816080938100809180008160809380001F
:100760008091B10084608093B1008091B00081607D
:100770008093B00080917A00846080937A008091A9
:100780007A00826080937A0080917A008160809301
:100790007A0080917A00806880937A001092C1007C
:1007A00062E082E00E94CF0060E08EE00E94CF0015
:1007B00061E089E00E94CF001092800010928100D9
:1007C00081E090E0909389008093880080E490E03D
:1007D00090938B0080938A0096E090936F0020E3C3
:1007E00031E0309301012093000180916900836022
:1007F00080936900E89AE0914601F091470182E018
:100800008083E0914201F09143011082E091440124
:10081000F09145018FEC808310924E01E0914A01E6
:10082000F0914B019083E0914801F0914901808162
:1008300080618083E0914801F09149018081886066
:100840008083E0914801F091490180818068808334
:10085000E0914801F091490180818F7D80834BE1D7
:1008600050E066E171E086E391E00E943B0142E0E6
:1008700050E062E371E086E391E00E943B0110E406
:1008800044244A9493E0592E612C712CC0E0D0E0AE
:1008900010937C0080917A00806480937A0080912C
:1008A0007A0086FDFCCFA0917800B091790027EC0A
:1008B00031E00E940F05A30192010E94BF04309312
:1008C0008900209388000E940B014B015C018FE09E
:1008D000C82ED12CE12CF12C0E940B01681979094A
:1008E0008A099B09683E734081059105A8F321E0C0
:1008F000C21AD108E108F10888EE880E83E0981E3C
:10090000A11CB11CC114D104E104F10429F7209702
:1009100009F4BECF0E94A501882309F4B9CF0E9433
:100920000000B6CFE6E3F1E01382128288EE93E096
:10093000A0E0B0E084839583A683B78388E091E04C
:100940009183808385EC90E09587848784EC90E0A8
:100950009787868780EC90E0918B808B81EC90E08C
:10096000938B828B82EC90E0958B848B86EC90E06D
:10097000978B868B118E128E138E148E0895052EF2
:1009800097FB1EF400940E94D60457FD07D00E94E6
:10099000DE0407FC03D04EF40C94D6045095409529
:1009A000309521953F4F4F4F5F4F0895909580951B
:1009B000709561957F4F8F4F9F4F0895A1E21A2E3A
:1009C000AA1BBB1BFD010DC0AA1FBB1FEE1FFF1FF3
:1009D000A217B307E407F50720F0A21BB30BE40B43
:1009E000F50B661F771F881F991F1A9469F760958A
:1009F0007095809590959B01AC01BD01CF01089544
:100A0000A29FB001B39FC001A39F700D811D11244F
:100A1000911DB29F700D811D1124911D08950E949A
:100A20000005B7FF0895821B930B0895EE0FFF1F7B
:0C0A30000590F491E02D0994F894FFCF9C
:100A3C003A013A0100000000DB013B016801280289
:100A4C00990177018B01414320436F6E74726F6C77
:100A5C002056312E3220496E697469616C697A6551
:060A6C0064000D0A000009
:00000001FF
