:100000000C9462000C948A000C948A000C948A0070
:100010000C948A000C948A000C948A000C948A0038
:100020000C948A000C948A000C948A000C948A0028
:100030000C948A000C948A000C948A000C948A0018
:100040000C94AD020C948A000C941D030C94F702DE
:100050000C948A000C948A000C948A000C948A00F8
:100060000C948A000C948A000000000024002700F1
:100070002A000000000023002600290000000000E4
:10008000250028002B0004040404040404040202D4
:100090000202020203030303030301020408102007
:1000A0004080010204081020010204081020000012
:1000B0000008000201000003040700000000000027
:1000C00000008B0511241FBECFEFD8E0DEBFCDBFEF
:1000D00011E0A0E0B1E0E6EAF0E102C005900D9287
:1000E000A633B107D9F721E0A6E3B1E001C01D9224
:1000F000AC3DB207E1F710E0C2E6D0E004C02197C2
:10010000FE010E944B08C136D107C9F70E94940333
:100110000C9451080C940000E1EBF0E02491EDE91F
:10012000F0E09491E9E8F0E0E491EE23C9F02223B5
:1001300039F0233001F1A8F4213019F1223029F1EE
:10014000F0E0EE0FFF1FE458FF4FA591B4912FB7D9
:10015000F894EC91811126C090959E239C932FBF1B
:1001600008952730A9F02830C9F0243049F72091AC
:1001700080002F7D03C0209180002F772093800086
:10018000DFCF24B52F7724BDDBCF24B52F7DFBCF68
:100190002091B0002F772093B000D2CF2091B000F3
:1001A0002F7DF9CF9E2BDACFCF93DF9390E0FC0128
:1001B000E656FF4F24918A579F4FFC018491882374
:1001C000D1F090E0880F991FFC01E859FF4FA591ED
:1001D000B491FC01E458FF4FC591D49161110EC058
:1001E0009FB7F8948C91E22FE0958E238C93288111
:1001F000E223E8839FBFDF91CF9108958FB7F894F2
:10020000EC91E22BEC938FBFF6CF3FB7F89480913F
:100210003B0190913C01A0913D01B0913E0126B57A
:10022000A89B05C02F3F19F00196A11DB11D3FBF2E
:10023000BA2FA92F982F8827BC01CD01620F711DFD
:10024000811D911D42E0660F771F881F991F4A95F7
:10025000D1F70895AF92BF92CF92DF92EF92FF92C3
:100260000F931F93CF93DF936C017B018B01040FDE
:10027000151FEB015E01AE18BF08C017D10759F07A
:100280006991D601ED91FC910190F081E02DC601BC
:100290000995892B79F7C501DF91CF911F910F91B6
:1002A000FF90EF90DF90CF90BF90AF900895FC014A
:1002B000538D448D252F30E0842F90E0821B930BCB
:1002C000541710F0CF96089501970895FC01918D71
:1002D000828D981761F0A28DAE0FBF2FB11D5D9674
:1002E0008C91928D9F5F9F73928F90E008958FEF16
:1002F0009FEF0895FC01918D828D981731F0828DCA
:10030000E80FF11D858D90E008958FEF9FEF089520
:10031000FC01918D228D892F90E0805C9F4F821B84
:1003200091098F73992708958FE391E00E948801C6
:1003300021E0892B09F420E0822F089580E090E0ED
:10034000892B29F00E94940181110C9400000895DA
:10035000FC01A48DA80FB92FB11DA35ABF4F2C913A
:10036000848D90E001968F739927848FA689B78931
:100370002C93A089B1898C91837080648C93938D28
:10038000848D981306C00288F389E02D80818F7DCB
:1003900080830895EF92FF920F931F93CF93DF9383
:1003A000EC0181E0888F9B8D8C8D98131AC0E889B1
:1003B000F989808185FF15C09FB7F894EE89FF8980
:1003C0006083E889F98980818370806480839FBF1E
:1003D00081E090E0DF91CF911F910F91FF90EF901E
:1003E0000895F62E0B8D10E00F5F1F4F0F7311272E
:1003F000E02E8C8D8E110CC00FB607FCFACFE88969
:10040000F989808185FFF5CFCE010E94A801F1CF47
:10041000EB8DEC0FFD2FF11DE35AFF4FF0829FB7DC
:10042000F8940B8FEA89FB8980818062CFCFCF93CC
:10043000DF93EC01888D8823B9F0AA89BB89E8890C
:10044000F9898C9185FD03C0808186FD0DC00FB6B2
:1004500007FCF7CF8C9185FFF2CF808185FFEDCF30
:10046000CE010E94A801E9CFDF91CF910895FC0150
:1004700001900020E9F73197AF01481B590BBC01EF
:100480008FE391E00C942A018F929F92AF92BF92DA
:100490000F931F93CF93DF93CDB7DEB7A1970FB61E
:1004A000F894DEBF0FBECDBF19A2423008F44AE077
:1004B0008E010F5D1F4F842E912CB12CA12CA50114
:1004C00094010E94D705E62FB901CA01EA30F4F47D
:1004D000E05DD801EE938D01232B242B252B79F79A
:1004E00090E080E0109719F0CD010E943702A196AC
:1004F0000FB6F894DEBF0FBECDBFDF91CF911F9135
:100500000F91BF90AF909F908F900895E95CE1CFDD
:100510000F931F93482FEDE9F0E06491E9E8F0E0D4
:10052000E4918111462FF0E0EE0FFF1FEE58FF4FD0
:100530008591949100E412E42FE030E00E944F0393
:10054000611571058105910529F06F5F7F4F8F4F10
:100550009F4F9F701F910F9108951F920F920FB69A
:100560000F9211242F933F938F939F93AF93BF9339
:100570008091370190913801A0913901B0913A01F1
:100580003091360123E0230F2D3758F50196A11D38
:10059000B11D209336018093370190933801A093C9
:1005A0003901B0933A0180913B0190913C01A091B7
:1005B0003D01B0913E010196A11DB11D80933B010B
:1005C00090933C01A0933D01B0933E01BF91AF9148
:1005D0009F918F913F912F910F900FBE0F901F9081
:1005E000189526E8230F0296A11DB11DD2CF1F92A8
:1005F0000F920FB60F9211242F933F934F935F9357
:100600006F937F938F939F93AF93BF93EF93FF93DA
:100610008FE391E00E94A801FF91EF91BF91AF910C
:100620009F918F917F916F915F914F913F912F910A
:100630000F900FBE0F901F9018951F920F920FB63C
:100640000F9211242F938F939F93EF93FF93E09139
:100650004F01F09150018081E0915501F0915601D8
:1006600082FD1BC09081809158018F5F8F73209114
:100670005901821741F0E0915801F0E0E15CFE4F32
:10068000958F80935801FF91EF919F918F912F91BA
:100690000F900FBE0F901F9018958081F4CFCF92CE
:1006A000DF92EF92FF920F931F93E82FF92F05C06F
:1006B000015011092109310961F1908196239417A4
:1006C000B9F305C0015011092109310911F19081D7
:1006D00096239413F7CFC12CD12CE12CF12C0AC016
:1006E0008FEFC81AD80AE80AF80A0C151D052E055E
:1006F0003F0579F080818623841791F36C2D7D2D41
:100700008E2D9F2D1F910F91FF90EF90DF90CF9036
:10071000089560E070E080E090E01F910F91FF90FD
:10072000EF90DF90CF900895789484B5826084BD77
:1007300084B5816084BD85B5826085BD85B58160E5
:1007400085BD80916E00816080936E001092810063
:10075000809181008260809381008091810081601E
:1007600080938100809180008160809380008091DF
:10077000B10084608093B1008091B000816080936B
:10078000B00080917A00846080937A0080917A0032
:10079000826080937A0080917A00816080937A00F1
:1007A00080917A00806880937A001092C10060E0A6
:1007B0008EE00E94D40061E083E00E94D400E091CA
:1007C0004F01F091500182E08083E0914B01F09164
:1007D0004C011082E0914D01F0914E018FEC80832D
:1007E00010925701E0915301F091540186E080830B
:1007F000E0915101F0915201808180618083E0910C
:100800005101F0915201808188608083E091510113
:10081000F0915201808180688083E0915101F091D4
:10082000520180818F7D808390E4392E88248A94C0
:1008300023E0922EA12CB12C01EB10E0C0E0D0E01F
:1008400081E00E9488026B017C0180E00E948802A6
:10085000C114D104E104F10471F161157105810540
:10086000910549F16C0D7D1D8E1D9F1D0E941B077A
:100870009B01AC0160E074E284E799E40E947A068F
:100880006B017C0182E191E00E943702A701960191
:10089000C701B6010E943F08882309F478C082E2AC
:1008A00091E00E9437028EE291E00E94370282E3DB
:1008B00091E00E94370230927C0080917A0080643F
:1008C00080937A0080917A0086FDFCCFA091780019
:1008D000B09179002FEF30E00E944408A501940107
:1008E0000E94B80529013A0179014AE0C301B20129
:1008F00077FE0DC06DE28FE391E00E94CA0166278A
:100900007727CB0164197509860997094AE00E9487
:10091000440282E391E00E94370261E083E00E949A
:10092000D400E114F10409F0AEC080E00E948C0014
:100930000E9405012B013C018AE0C82ED12CE12C3C
:10094000F12C0E9405016419750986099709683E12
:10095000734081059105A8F321E0C21AD108E1088E
:10096000F10888EE480E83E0581E611C711CC1140A
:10097000D104E104F10429F7209709F461CF0E9422
:100980009401882309F45CCF0E94000059CF2FEF17
:100990003FEF4FE75FE7C701B6010E943F088111B3
:1009A0000DC02FEF3FEF4FE75FE7C701B6010E9491
:1009B000750618161CF486E291E073CF2FEF3FEF17
:1009C0004FE75FE4C701B6010E94CD0718161CF47B
:1009D0008AE291E066CF2FEF3FEF4FE75FECC70170
:1009E000B6010E94750687FDF3CF2AE037ED43EA92
:1009F0005BE3C701B6010E9409062B013C010E947E
:100A0000EC066B017C010E941B079B01AC01C3013A
:100A1000B2010E9408062B013C014AE0C701B60161
:100A20000E9444026EE28FE391E00E94CA0120E03E
:100A300030E040E251E4C301B2010E94D2072B0131
:100A40003C010E94EC066B01F12CE12C4AE0C7014D
:100A5000B6010E944402C701B6010E941B079B0118
:100A6000AC01C301B2010E94080620E030E040E280
:100A700051E40E94D2070E94EC0690E080E04AE038
:100A80000E94440210CF2FEFE216F10411F481E02E
:100A90004DCFF8018491833021F148F48130B9F0D1
:100AA0008230D1F0F0E8EF16F1048CF73ECF8730BA
:100AB00011F1883041F18430A9F780918000806283
:100AC0008093800050928B0040928A0031CF84B591
:100AD000806884BD47BC2CCF84B5806284BD48BC8F
:100AE00027CF809180008068809380005092890099
:100AF000409288001DCF8091B00080688093B00044
:100B00004092B30015CF8091B00080628093B00016
:100B10004092B4000DCFEFE3F1E01382128288EE31
:100B200093E0A0E0B0E084839583A683B78384E05C
:100B300091E09183808385EC90E09587848784ECB5
:100B400090E09787868780EC90E0918B808B81EC9A
:100B500090E0938B828B82EC90E0958B848B86EC7B
:100B600090E0978B868B118E128E138E148E0895C3
:100B7000052E97FB1EF400940E94CF0557FD07D069
:100B80000E94D70507FC03D04EF40C94CF05509576
:100B90004095309521953F4F4F4F5F4F0895909569
:100BA0008095709561957F4F8F4F9F4F0895A1E27B
:100BB0001A2EAA1BBB1BFD010DC0AA1FBB1FEE1FD7
:100BC000FF1FA217B307E407F50720F0A21BB30B22
:100BD000E40BF50B661F771F881F991F1A9469F79E
:100BE00060957095809590959B01AC01BD01CF01FA
:100BF0000895A29FB001B39FC001A39F700D811DF6
:100C00001124911DB29F700D811D1124911D089515
:100C10005058BB27AA270E9420060C9493070E94D5
:100C2000850738F00E948C0720F039F49F3F19F4B3
:100C300026F40C9482070EF4E095E7FB0C947C07F5
:100C4000E92F0E94A40758F3BA17620773078407B5
:100C5000950720F079F4A6F50C94C6070EF4E095FC
:100C60000B2EBA2FA02D0B01B90190010C01CA0166
:100C7000A0011124FF27591B99F0593F50F4503E11
:100C800068F11A16F040A22F232F342F4427585F03
:100C9000F3CF469537952795A795F0405395C9F71B
:100CA0007EF41F16BA0B620B730B840BBAF09150D3
:100CB000A1F0FF0FBB1F661F771F881FC2F70EC072
:100CC000BA0F621F731F841F48F487957795679545
:100CD000B795F7959E3F08F0B0CF9395880F08F031
:100CE0009927EE0F9795879508950E94580708F465
:100CF00081E008950E948E060C9493070E948C0751
:100D000058F00E94850740F029F45F3F29F00C94C9
:100D10007C0751110C94C7070C9482070E94A4070A
:100D200068F39923B1F3552391F3951B550BBB271A
:100D3000AA2762177307840738F09F5F5F4F220F5F
:100D4000331F441FAA1FA9F335D00E2E3AF0E0E856
:100D500032D091505040E695001CCAF72BD0FE2FA0
:100D600029D0660F771F881FBB1F26173707480734
:100D7000AB07B0E809F0BB0B802DBF01FF279358EC
:100D80005F4F3AF09E3F510578F00C947C070C942D
:100D9000C7075F3FE4F3983ED4F386957795679550
:100DA000B795F7959F5FC9F7880F911D9695879521
:100DB00097F90895E1E0660F771F881FBB1F621740
:100DC00073078407BA0720F0621B730B840BBA0BFE
:100DD000EE1F88F7E09508950E94AC0788F09F57B2
:100DE00098F0B92F9927B751B0F0E1F0660F771F4F
:100DF000881F991F1AF0BA95C9F714C0B13091F045
:100E00000E94C607B1E008950C94C607672F782F9B
:100E10008827B85F39F0B93FCCF386957795679509
:100E2000B395D9F73EF490958095709561957F4F75
:100E30008F4F9F4F0895E89409C097FB3EF490951B
:100E40008095709561957F4F8F4F9F4F9923A9F0A3
:100E5000F92F96E9BB279395F69587957795679532
:100E6000B795F111F8CFFAF4BB0F11F460FF1BC076
:100E70006F5F7F4F8F4F9F4F16C0882311F096E909
:100E800011C0772321F09EE8872F762F05C06623B7
:100E900071F096E8862F70E060E02AF09A95660F70
:100EA000771F881FDAF7880F9695879597F9089529
:100EB000990F0008550FAA0BE0E8FEEF161617066B
:100EC000E807F907C0F012161306E407F50798F0D3
:100ED000621B730B840B950B39F40A2661F0232BEC
:100EE000242B252B21F408950A2609F4A140A69568
:100EF0008FEF811D811D089597F99F6780E870E04D
:100F000060E008959FEF80EC089500240A9416167F
:100F1000170618060906089500240A9412161306E7
:100F2000140605060895092E0394000C11F4882375
:100F300052F0BB0F40F4BF2B11F460FF04C06F5F91
:100F40007F4F8F4F9F4F089557FD9058440F551F67
:100F500059F05F3F71F04795880F97FB991F61F03B
:100F60009F3F79F087950895121613061406551FB2
:100F7000F2CF4695F1DF08C0161617061806991F1E
:100F8000F1CF86957105610508940895E894BB2713
:100F900066277727CB0197F908950E94580708F430
:100FA0008FEF08950E94E5070C9493070E94850730
:100FB00038F00E948C0720F0952311F00C947C07E8
:100FC0000C94820711240C94C7070E94A40770F3A5
:100FD000959FC1F3950F50E0551F629FF001729FDE
:100FE000BB27F00DB11D639FAA27F00DB11DAA1FED
:100FF000649F6627B00DA11D661F829F2227B00D3A
:10100000A11D621F739FB00DA11D621F839FA00DC4
:10101000611D221F749F3327A00D611D231F849F14
:10102000600D211D822F762F6A2F11249F5750406B
:101030009AF0F1F088234AF0EE0FFF1FBB1F661FE6
:10104000771F881F91505040A9F79E3F510580F0AF
:101050000C947C070C94C7075F3FE4F3983ED4F3ED
:10106000869577956795B795F795E7959F5FC1F753
:10107000FE2B880F911D9695879597F908950E94EC
:101080005807880B990B08950E94F905B7FF08953A
:10109000821B930B0895EE0FFF1F0590F491E02D36
:0610A0000994F894FFCF53
:1010A60000000000CA012A015701170288016601E3
:1010B6007A0150574D204672657175656E63793AAF
:1010C60020006E616E00696E66006F7666002048CD
:0610D6007A000D0A000083
:00000001FF
